{
    "_format": "hh-sol-artifact-1",
    "contractName": "Unitea",
    "sourceName": "contracts/Unitea.sol",
    "abi": [
        {
            "inputs": [],
            "stateMutability": "nonpayable",
            "type": "constructor"
        },
        {
            "anonymous": false,
            "inputs": [
                {
                    "indexed": true,
                    "internalType": "address",
                    "name": "account",
                    "type": "address"
                },
                {
                    "indexed": true,
                    "internalType": "address",
                    "name": "operator",
                    "type": "address"
                },
                {
                    "indexed": false,
                    "internalType": "bool",
                    "name": "approved",
                    "type": "bool"
                }
            ],
            "name": "ApprovalForAll",
            "type": "event"
        },
        {
            "anonymous": false,
            "inputs": [
                {
                    "indexed": true,
                    "internalType": "address",
                    "name": "previousOwner",
                    "type": "address"
                },
                {
                    "indexed": true,
                    "internalType": "address",
                    "name": "newOwner",
                    "type": "address"
                }
            ],
            "name": "OwnershipTransferred",
            "type": "event"
        },
        {
            "anonymous": false,
            "inputs": [
                {
                    "indexed": true,
                    "internalType": "address",
                    "name": "_from",
                    "type": "address"
                },
                {
                    "indexed": true,
                    "internalType": "uint256",
                    "name": "_id",
                    "type": "uint256"
                }
            ],
            "name": "TokenCreated",
            "type": "event"
        },
        {
            "anonymous": false,
            "inputs": [
                {
                    "indexed": true,
                    "internalType": "address",
                    "name": "operator",
                    "type": "address"
                },
                {
                    "indexed": true,
                    "internalType": "address",
                    "name": "from",
                    "type": "address"
                },
                {
                    "indexed": true,
                    "internalType": "address",
                    "name": "to",
                    "type": "address"
                },
                {
                    "indexed": false,
                    "internalType": "uint256[]",
                    "name": "ids",
                    "type": "uint256[]"
                },
                {
                    "indexed": false,
                    "internalType": "uint256[]",
                    "name": "values",
                    "type": "uint256[]"
                }
            ],
            "name": "TransferBatch",
            "type": "event"
        },
        {
            "anonymous": false,
            "inputs": [
                {
                    "indexed": true,
                    "internalType": "address",
                    "name": "operator",
                    "type": "address"
                },
                {
                    "indexed": true,
                    "internalType": "address",
                    "name": "from",
                    "type": "address"
                },
                {
                    "indexed": true,
                    "internalType": "address",
                    "name": "to",
                    "type": "address"
                },
                {
                    "indexed": false,
                    "internalType": "uint256",
                    "name": "id",
                    "type": "uint256"
                },
                {
                    "indexed": false,
                    "internalType": "uint256",
                    "name": "value",
                    "type": "uint256"
                }
            ],
            "name": "TransferSingle",
            "type": "event"
        },
        {
            "anonymous": false,
            "inputs": [
                {
                    "indexed": false,
                    "internalType": "string",
                    "name": "value",
                    "type": "string"
                },
                {
                    "indexed": true,
                    "internalType": "uint256",
                    "name": "id",
                    "type": "uint256"
                }
            ],
            "name": "URI",
            "type": "event"
        },
        {
            "inputs": [
                {
                    "internalType": "address",
                    "name": "account",
                    "type": "address"
                },
                {
                    "internalType": "uint256",
                    "name": "id",
                    "type": "uint256"
                }
            ],
            "name": "balanceOf",
            "outputs": [
                {
                    "internalType": "uint256",
                    "name": "",
                    "type": "uint256"
                }
            ],
            "stateMutability": "view",
            "type": "function"
        },
        {
            "inputs": [
                {
                    "internalType": "address[]",
                    "name": "accounts",
                    "type": "address[]"
                },
                {
                    "internalType": "uint256[]",
                    "name": "ids",
                    "type": "uint256[]"
                }
            ],
            "name": "balanceOfBatch",
            "outputs": [
                {
                    "internalType": "uint256[]",
                    "name": "",
                    "type": "uint256[]"
                }
            ],
            "stateMutability": "view",
            "type": "function"
        },
        {
            "inputs": [
                {
                    "internalType": "string",
                    "name": "name",
                    "type": "string"
                },
                {
                    "internalType": "string",
                    "name": "symbol",
                    "type": "string"
                },
                {
                    "internalType": "string",
                    "name": "tokenUri",
                    "type": "string"
                }
            ],
            "name": "createToken",
            "outputs": [],
            "stateMutability": "nonpayable",
            "type": "function"
        },
        {
            "inputs": [
                {
                    "internalType": "uint256",
                    "name": "tokenId",
                    "type": "uint256"
                }
            ],
            "name": "getTokenInfo",
            "outputs": [
                {
                    "internalType": "bool",
                    "name": "",
                    "type": "bool"
                },
                {
                    "internalType": "string",
                    "name": "",
                    "type": "string"
                },
                {
                    "internalType": "string",
                    "name": "",
                    "type": "string"
                },
                {
                    "internalType": "string",
                    "name": "",
                    "type": "string"
                },
                {
                    "internalType": "uint256",
                    "name": "",
                    "type": "uint256"
                }
            ],
            "stateMutability": "view",
            "type": "function"
        },
        {
            "inputs": [
                {
                    "internalType": "address",
                    "name": "account",
                    "type": "address"
                },
                {
                    "internalType": "address",
                    "name": "operator",
                    "type": "address"
                }
            ],
            "name": "isApprovedForAll",
            "outputs": [
                {
                    "internalType": "bool",
                    "name": "",
                    "type": "bool"
                }
            ],
            "stateMutability": "view",
            "type": "function"
        },
        {
            "inputs": [
                {
                    "internalType": "address",
                    "name": "account",
                    "type": "address"
                },
                {
                    "internalType": "uint256",
                    "name": "id",
                    "type": "uint256"
                },
                {
                    "internalType": "uint256",
                    "name": "amount",
                    "type": "uint256"
                }
            ],
            "name": "mint",
            "outputs": [],
            "stateMutability": "nonpayable",
            "type": "function"
        },
        {
            "inputs": [
                {
                    "internalType": "address",
                    "name": "to",
                    "type": "address"
                },
                {
                    "internalType": "uint256[]",
                    "name": "ids",
                    "type": "uint256[]"
                },
                {
                    "internalType": "uint256[]",
                    "name": "amounts",
                    "type": "uint256[]"
                }
            ],
            "name": "mintBatch",
            "outputs": [],
            "stateMutability": "nonpayable",
            "type": "function"
        },
        {
            "inputs": [],
            "name": "owner",
            "outputs": [
                {
                    "internalType": "address",
                    "name": "",
                    "type": "address"
                }
            ],
            "stateMutability": "view",
            "type": "function"
        },
        {
            "inputs": [],
            "name": "renounceOwnership",
            "outputs": [],
            "stateMutability": "nonpayable",
            "type": "function"
        },
        {
            "inputs": [
                {
                    "internalType": "address",
                    "name": "from",
                    "type": "address"
                },
                {
                    "internalType": "address",
                    "name": "to",
                    "type": "address"
                },
                {
                    "internalType": "uint256[]",
                    "name": "ids",
                    "type": "uint256[]"
                },
                {
                    "internalType": "uint256[]",
                    "name": "amounts",
                    "type": "uint256[]"
                },
                {
                    "internalType": "bytes",
                    "name": "data",
                    "type": "bytes"
                }
            ],
            "name": "safeBatchTransferFrom",
            "outputs": [],
            "stateMutability": "nonpayable",
            "type": "function"
        },
        {
            "inputs": [
                {
                    "internalType": "address",
                    "name": "from",
                    "type": "address"
                },
                {
                    "internalType": "address",
                    "name": "to",
                    "type": "address"
                },
                {
                    "internalType": "uint256",
                    "name": "id",
                    "type": "uint256"
                },
                {
                    "internalType": "uint256",
                    "name": "amount",
                    "type": "uint256"
                },
                {
                    "internalType": "bytes",
                    "name": "data",
                    "type": "bytes"
                }
            ],
            "name": "safeTransferFrom",
            "outputs": [],
            "stateMutability": "nonpayable",
            "type": "function"
        },
        {
            "inputs": [
                {
                    "internalType": "address",
                    "name": "operator",
                    "type": "address"
                },
                {
                    "internalType": "bool",
                    "name": "approved",
                    "type": "bool"
                }
            ],
            "name": "setApprovalForAll",
            "outputs": [],
            "stateMutability": "nonpayable",
            "type": "function"
        },
        {
            "inputs": [
                {
                    "internalType": "bytes4",
                    "name": "interfaceId",
                    "type": "bytes4"
                }
            ],
            "name": "supportsInterface",
            "outputs": [
                {
                    "internalType": "bool",
                    "name": "",
                    "type": "bool"
                }
            ],
            "stateMutability": "view",
            "type": "function"
        },
        {
            "inputs": [
                {
                    "internalType": "address",
                    "name": "newOwner",
                    "type": "address"
                }
            ],
            "name": "transferOwnership",
            "outputs": [],
            "stateMutability": "nonpayable",
            "type": "function"
        },
        {
            "inputs": [
                {
                    "internalType": "uint256",
                    "name": "tokenId",
                    "type": "uint256"
                }
            ],
            "name": "uri",
            "outputs": [
                {
                    "internalType": "string",
                    "name": "",
                    "type": "string"
                }
            ],
            "stateMutability": "view",
            "type": "function"
        }
    ],
    "bytecode": "0x60806040523480156200001157600080fd5b506040518060200160405280600081525062000033816200007160201b60201c565b5062000054620000486200008d60201b60201c565b6200009560201b60201c565b6200006b60046200015b60201b620010fd1760201c565b62000286565b80600290805190602001906200008992919062000171565b5050565b600033905090565b6000600360009054906101000a900473ffffffffffffffffffffffffffffffffffffffff16905081600360006101000a81548173ffffffffffffffffffffffffffffffffffffffff021916908373ffffffffffffffffffffffffffffffffffffffff1602179055508173ffffffffffffffffffffffffffffffffffffffff168173ffffffffffffffffffffffffffffffffffffffff167f8be0079c531659141344cd1fd0a4f28419497f9722a3daafe3b4186f6b6457e060405160405180910390a35050565b6001816000016000828254019250508190555050565b8280546200017f9062000221565b90600052602060002090601f016020900481019282620001a35760008555620001ef565b82601f10620001be57805160ff1916838001178555620001ef565b82800160010185558215620001ef579182015b82811115620001ee578251825591602001919060010190620001d1565b5b509050620001fe919062000202565b5090565b5b808211156200021d57600081600090555060010162000203565b5090565b600060028204905060018216806200023a57607f821691505b6020821081141562000251576200025062000257565b5b50919050565b7f4e487b7100000000000000000000000000000000000000000000000000000000600052602260045260246000fd5b613ac280620002966000396000f3fe608060405234801561001057600080fd5b50600436106100f45760003560e01c80638c7a63ae11610097578063d81d0a1511610066578063d81d0a1514610285578063e985e9c5146102a1578063f242432a146102d1578063f2fde38b146102ed576100f4565b80638c7a63ae146101fb5780638da5cb5b1461022f57806394aed7d01461024d578063a22cb46514610269576100f4565b8063156e29f6116100d3578063156e29f6146101895780632eb2c2d6146101a55780634e1273f4146101c1578063715018a6146101f1576100f4565b8062fdd58e146100f957806301ffc9a7146101295780630e89341c14610159575b600080fd5b610113600480360381019061010e9190612837565b610309565b604051610120919061312c565b60405180910390f35b610143600480360381019061013e919061292e565b6103d2565b6040516101509190612ea7565b60405180910390f35b610173600480360381019061016e9190612a17565b6104b4565b6040516101809190612f2a565b60405180910390f35b6101a3600480360381019061019e9190612873565b61055c565b005b6101bf60048036038101906101ba919061262e565b610662565b005b6101db60048036038101906101d691906128c2565b610703565b6040516101e89190612e4e565b60405180910390f35b6101f96108b4565b005b61021560048036038101906102109190612a17565b61093c565b604051610226959493929190612ec2565b60405180910390f35b610237610b79565b6040516102449190612d71565b60405180910390f35b61026760048036038101906102629190612980565b610ba3565b005b610283600480360381019061027e91906127fb565b610d54565b005b61029f600480360381019061029a919061277c565b610d6a565b005b6102bb60048036038101906102b691906125f2565b610ed0565b6040516102c89190612ea7565b60405180910390f35b6102eb60048036038101906102e691906126ed565b610f64565b005b610307600480360381019061030291906125c9565b611005565b005b60008073ffffffffffffffffffffffffffffffffffffffff168373ffffffffffffffffffffffffffffffffffffffff16141561037a576040517f08c379a000000000000000000000000000000000000000000000000000000000815260040161037190612f8c565b60405180910390fd5b60008083815260200190815260200160002060008473ffffffffffffffffffffffffffffffffffffffff1673ffffffffffffffffffffffffffffffffffffffff16815260200190815260200160002054905092915050565b60007fd9b67a26000000000000000000000000000000000000000000000000000000007bffffffffffffffffffffffffffffffffffffffffffffffffffffffff1916827bffffffffffffffffffffffffffffffffffffffffffffffffffffffff1916148061049d57507f0e89341c000000000000000000000000000000000000000000000000000000007bffffffffffffffffffffffffffffffffffffffffffffffffffffffff1916827bffffffffffffffffffffffffffffffffffffffffffffffffffffffff1916145b806104ad57506104ac82611113565b5b9050919050565b60606005600083815260200190815260200160002060030180546104d7906133cc565b80601f0160208091040260200160405190810160405280929190818152602001828054610503906133cc565b80156105505780601f1061052557610100808354040283529160200191610550565b820191906000526020600020905b81548152906001019060200180831161053357829003601f168201915b50505050509050919050565b61056461117d565b73ffffffffffffffffffffffffffffffffffffffff16610582610b79565b73ffffffffffffffffffffffffffffffffffffffff16146105d8576040517f08c379a00000000000000000000000000000000000000000000000000000000081526004016105cf9061306c565b60405180910390fd5b600115156005600084815260200190815260200160002060000160009054906101000a900460ff16151514610642576040517f08c379a00000000000000000000000000000000000000000000000000000000081526004016106399061308c565b60405180910390fd5b61065d83838360405180602001604052806000815250611185565b505050565b61066a61117d565b73ffffffffffffffffffffffffffffffffffffffff168573ffffffffffffffffffffffffffffffffffffffff1614806106b057506106af856106aa61117d565b610ed0565b5b6106ef576040517f08c379a00000000000000000000000000000000000000000000000000000000081526004016106e69061300c565b60405180910390fd5b6106fc8585858585611336565b5050505050565b60608151835114610749576040517f08c379a0000000000000000000000000000000000000000000000000000000008152600401610740906130cc565b60405180910390fd5b6000835167ffffffffffffffff81111561078c577f4e487b7100000000000000000000000000000000000000000000000000000000600052604160045260246000fd5b6040519080825280602002602001820160405280156107ba5781602001602082028036833780820191505090505b50905060005b84518110156108a957610853858281518110610805577f4e487b7100000000000000000000000000000000000000000000000000000000600052603260045260246000fd5b6020026020010151858381518110610846577f4e487b7100000000000000000000000000000000000000000000000000000000600052603260045260246000fd5b6020026020010151610309565b82828151811061088c577f4e487b7100000000000000000000000000000000000000000000000000000000600052603260045260246000fd5b602002602001018181525050806108a29061342f565b90506107c0565b508091505092915050565b6108bc61117d565b73ffffffffffffffffffffffffffffffffffffffff166108da610b79565b73ffffffffffffffffffffffffffffffffffffffff1614610930576040517f08c379a00000000000000000000000000000000000000000000000000000000081526004016109279061306c565b60405180910390fd5b61093a60006116a4565b565b6000606080606060006005600087815260200190815260200160002060000160009054906101000a900460ff166005600088815260200190815260200160002060010160056000898152602001908152602001600020600201600560008a8152602001908152602001600020600301600560008b8152602001908152602001600020600401548380546109ce906133cc565b80601f01602080910402602001604051908101604052809291908181526020018280546109fa906133cc565b8015610a475780601f10610a1c57610100808354040283529160200191610a47565b820191906000526020600020905b815481529060010190602001808311610a2a57829003601f168201915b50505050509350828054610a5a906133cc565b80601f0160208091040260200160405190810160405280929190818152602001828054610a86906133cc565b8015610ad35780601f10610aa857610100808354040283529160200191610ad3565b820191906000526020600020905b815481529060010190602001808311610ab657829003601f168201915b50505050509250818054610ae6906133cc565b80601f0160208091040260200160405190810160405280929190818152602001828054610b12906133cc565b8015610b5f5780601f10610b3457610100808354040283529160200191610b5f565b820191906000526020600020905b815481529060010190602001808311610b4257829003601f168201915b505050505091509450945094509450945091939590929450565b6000600360009054906101000a900473ffffffffffffffffffffffffffffffffffffffff16905090565b610bab61117d565b73ffffffffffffffffffffffffffffffffffffffff16610bc9610b79565b73ffffffffffffffffffffffffffffffffffffffff1614610c1f576040517f08c379a0000000000000000000000000000000000000000000000000000000008152600401610c169061306c565b60405180910390fd5b6040518060a00160405280600115158152602001848152602001838152602001828152602001610c4f600461176a565b81525060056000610c60600461176a565b815260200190815260200160002060008201518160000160006101000a81548160ff0219169083151502179055506020820151816001019080519060200190610caa9291906122c1565b506040820151816002019080519060200190610cc79291906122c1565b506060820151816003019080519060200190610ce49291906122c1565b50608082015181600401559050506000610cfe600461176a565b9050610d0a60046110fd565b803373ffffffffffffffffffffffffffffffffffffffff167f1cef2b4ec7f129e441c961eb4fae22fd3131868db6be990c6f065f35b6b53cf360405160405180910390a350505050565b610d66610d5f61117d565b8383611778565b5050565b610d7261117d565b73ffffffffffffffffffffffffffffffffffffffff16610d90610b79565b73ffffffffffffffffffffffffffffffffffffffff1614610de6576040517f08c379a0000000000000000000000000000000000000000000000000000000008152600401610ddd9061306c565b60405180910390fd5b60005b8251811015610eaf576001151560056000858481518110610e33577f4e487b7100000000000000000000000000000000000000000000000000000000600052603260045260246000fd5b6020026020010151815260200190815260200160002060000160009054906101000a900460ff16151514610e9c576040517f08c379a0000000000000000000000000000000000000000000000000000000008152600401610e939061302c565b60405180910390fd5b8080610ea79061342f565b915050610de9565b50610ecb838383604051806020016040528060008152506118e5565b505050565b6000600160008473ffffffffffffffffffffffffffffffffffffffff1673ffffffffffffffffffffffffffffffffffffffff16815260200190815260200160002060008373ffffffffffffffffffffffffffffffffffffffff1673ffffffffffffffffffffffffffffffffffffffff16815260200190815260200160002060009054906101000a900460ff16905092915050565b610f6c61117d565b73ffffffffffffffffffffffffffffffffffffffff168573ffffffffffffffffffffffffffffffffffffffff161480610fb25750610fb185610fac61117d565b610ed0565b5b610ff1576040517f08c379a0000000000000000000000000000000000000000000000000000000008152600401610fe890612fcc565b60405180910390fd5b610ffe8585858585611b5e565b5050505050565b61100d61117d565b73ffffffffffffffffffffffffffffffffffffffff1661102b610b79565b73ffffffffffffffffffffffffffffffffffffffff1614611081576040517f08c379a00000000000000000000000000000000000000000000000000000000081526004016110789061306c565b60405180910390fd5b600073ffffffffffffffffffffffffffffffffffffffff168173ffffffffffffffffffffffffffffffffffffffff1614156110f1576040517f08c379a00000000000000000000000000000000000000000000000000000000081526004016110e890612fac565b60405180910390fd5b6110fa816116a4565b50565b6001816000016000828254019250508190555050565b60007f01ffc9a7000000000000000000000000000000000000000000000000000000007bffffffffffffffffffffffffffffffffffffffffffffffffffffffff1916827bffffffffffffffffffffffffffffffffffffffffffffffffffffffff1916149050919050565b600033905090565b600073ffffffffffffffffffffffffffffffffffffffff168473ffffffffffffffffffffffffffffffffffffffff1614156111f5576040517f08c379a00000000000000000000000000000000000000000000000000000000081526004016111ec9061310c565b60405180910390fd5b60006111ff61117d565b9050600061120c85611dfa565b9050600061121985611dfa565b905061122a83600089858589611ec0565b8460008088815260200190815260200160002060008973ffffffffffffffffffffffffffffffffffffffff1673ffffffffffffffffffffffffffffffffffffffff168152602001908152602001600020600082825461128991906132c0565b925050819055508673ffffffffffffffffffffffffffffffffffffffff16600073ffffffffffffffffffffffffffffffffffffffff168473ffffffffffffffffffffffffffffffffffffffff167fc3d58168c5ae7397731d063d5bbf3d657854427343f4c083240f7aacaa2d0f628989604051611307929190613147565b60405180910390a461131e83600089858589611ec8565b61132d83600089898989611ed0565b50505050505050565b815183511461137a576040517f08c379a0000000000000000000000000000000000000000000000000000000008152600401611371906130ec565b60405180910390fd5b600073ffffffffffffffffffffffffffffffffffffffff168473ffffffffffffffffffffffffffffffffffffffff1614156113ea576040517f08c379a00000000000000000000000000000000000000000000000000000000081526004016113e190612fec565b60405180910390fd5b60006113f461117d565b9050611404818787878787611ec0565b60005b845181101561160157600085828151811061144b577f4e487b7100000000000000000000000000000000000000000000000000000000600052603260045260246000fd5b602002602001015190506000858381518110611490577f4e487b7100000000000000000000000000000000000000000000000000000000600052603260045260246000fd5b60200260200101519050600080600084815260200190815260200160002060008b73ffffffffffffffffffffffffffffffffffffffff1673ffffffffffffffffffffffffffffffffffffffff16815260200190815260200160002054905081811015611531576040517f08c379a00000000000000000000000000000000000000000000000000000000081526004016115289061304c565b60405180910390fd5b81810360008085815260200190815260200160002060008c73ffffffffffffffffffffffffffffffffffffffff1673ffffffffffffffffffffffffffffffffffffffff168152602001908152602001600020819055508160008085815260200190815260200160002060008b73ffffffffffffffffffffffffffffffffffffffff1673ffffffffffffffffffffffffffffffffffffffff16815260200190815260200160002060008282546115e691906132c0565b92505081905550505050806115fa9061342f565b9050611407565b508473ffffffffffffffffffffffffffffffffffffffff168673ffffffffffffffffffffffffffffffffffffffff168273ffffffffffffffffffffffffffffffffffffffff167f4a39dc06d4c0dbc64b70af90fd698a233a518aa5d07e595d983b8c0526c8f7fb8787604051611678929190612e70565b60405180910390a461168e818787878787611ec8565b61169c8187878787876120b7565b505050505050565b6000600360009054906101000a900473ffffffffffffffffffffffffffffffffffffffff16905081600360006101000a81548173ffffffffffffffffffffffffffffffffffffffff021916908373ffffffffffffffffffffffffffffffffffffffff1602179055508173ffffffffffffffffffffffffffffffffffffffff168173ffffffffffffffffffffffffffffffffffffffff167f8be0079c531659141344cd1fd0a4f28419497f9722a3daafe3b4186f6b6457e060405160405180910390a35050565b600081600001549050919050565b8173ffffffffffffffffffffffffffffffffffffffff168373ffffffffffffffffffffffffffffffffffffffff1614156117e7576040517f08c379a00000000000000000000000000000000000000000000000000000000081526004016117de906130ac565b60405180910390fd5b80600160008573ffffffffffffffffffffffffffffffffffffffff1673ffffffffffffffffffffffffffffffffffffffff16815260200190815260200160002060008473ffffffffffffffffffffffffffffffffffffffff1673ffffffffffffffffffffffffffffffffffffffff16815260200190815260200160002060006101000a81548160ff0219169083151502179055508173ffffffffffffffffffffffffffffffffffffffff168373ffffffffffffffffffffffffffffffffffffffff167f17307eab39ab6107e8899845ad3d59bd9653f200f220920489ca2b5937696c31836040516118d89190612ea7565b60405180910390a3505050565b600073ffffffffffffffffffffffffffffffffffffffff168473ffffffffffffffffffffffffffffffffffffffff161415611955576040517f08c379a000000000000000000000000000000000000000000000000000000000815260040161194c9061310c565b60405180910390fd5b8151835114611999576040517f08c379a0000000000000000000000000000000000000000000000000000000008152600401611990906130ec565b60405180910390fd5b60006119a361117d565b90506119b481600087878787611ec0565b60005b8451811015611ab9578381815181106119f9577f4e487b7100000000000000000000000000000000000000000000000000000000600052603260045260246000fd5b6020026020010151600080878481518110611a3d577f4e487b7100000000000000000000000000000000000000000000000000000000600052603260045260246000fd5b6020026020010151815260200190815260200160002060008873ffffffffffffffffffffffffffffffffffffffff1673ffffffffffffffffffffffffffffffffffffffff1681526020019081526020016000206000828254611a9f91906132c0565b925050819055508080611ab19061342f565b9150506119b7565b508473ffffffffffffffffffffffffffffffffffffffff16600073ffffffffffffffffffffffffffffffffffffffff168273ffffffffffffffffffffffffffffffffffffffff167f4a39dc06d4c0dbc64b70af90fd698a233a518aa5d07e595d983b8c0526c8f7fb8787604051611b31929190612e70565b60405180910390a4611b4881600087878787611ec8565b611b57816000878787876120b7565b5050505050565b600073ffffffffffffffffffffffffffffffffffffffff168473ffffffffffffffffffffffffffffffffffffffff161415611bce576040517f08c379a0000000000000000000000000000000000000000000000000000000008152600401611bc590612fec565b60405180910390fd5b6000611bd861117d565b90506000611be585611dfa565b90506000611bf285611dfa565b9050611c02838989858589611ec0565b600080600088815260200190815260200160002060008a73ffffffffffffffffffffffffffffffffffffffff1673ffffffffffffffffffffffffffffffffffffffff16815260200190815260200160002054905085811015611c99576040517f08c379a0000000000000000000000000000000000000000000000000000000008152600401611c909061304c565b60405180910390fd5b85810360008089815260200190815260200160002060008b73ffffffffffffffffffffffffffffffffffffffff1673ffffffffffffffffffffffffffffffffffffffff168152602001908152602001600020819055508560008089815260200190815260200160002060008a73ffffffffffffffffffffffffffffffffffffffff1673ffffffffffffffffffffffffffffffffffffffff1681526020019081526020016000206000828254611d4e91906132c0565b925050819055508773ffffffffffffffffffffffffffffffffffffffff168973ffffffffffffffffffffffffffffffffffffffff168573ffffffffffffffffffffffffffffffffffffffff167fc3d58168c5ae7397731d063d5bbf3d657854427343f4c083240f7aacaa2d0f628a8a604051611dcb929190613147565b60405180910390a4611de1848a8a86868a611ec8565b611def848a8a8a8a8a611ed0565b505050505050505050565b60606000600167ffffffffffffffff811115611e3f577f4e487b7100000000000000000000000000000000000000000000000000000000600052604160045260246000fd5b604051908082528060200260200182016040528015611e6d5781602001602082028036833780820191505090505b5090508281600081518110611eab577f4e487b7100000000000000000000000000000000000000000000000000000000600052603260045260246000fd5b60200260200101818152505080915050919050565b505050505050565b505050505050565b611eef8473ffffffffffffffffffffffffffffffffffffffff1661229e565b156120af578373ffffffffffffffffffffffffffffffffffffffff1663f23a6e6187878686866040518663ffffffff1660e01b8152600401611f35959493929190612df4565b602060405180830381600087803b158015611f4f57600080fd5b505af1925050508015611f8057506040513d601f19601f82011682018060405250810190611f7d9190612957565b60015b61202657611f8c613505565b806308c379a01415611fe95750611fa161399a565b80611fac5750611feb565b806040517f08c379a0000000000000000000000000000000000000000000000000000000008152600401611fe09190612f2a565b60405180910390fd5b505b6040517f08c379a000000000000000000000000000000000000000000000000000000000815260040161201d90612f4c565b60405180910390fd5b63f23a6e6160e01b7bffffffffffffffffffffffffffffffffffffffffffffffffffffffff1916817bffffffffffffffffffffffffffffffffffffffffffffffffffffffff1916146120ad576040517f08c379a00000000000000000000000000000000000000000000000000000000081526004016120a490612f6c565b60405180910390fd5b505b505050505050565b6120d68473ffffffffffffffffffffffffffffffffffffffff1661229e565b15612296578373ffffffffffffffffffffffffffffffffffffffff1663bc197c8187878686866040518663ffffffff1660e01b815260040161211c959493929190612d8c565b602060405180830381600087803b15801561213657600080fd5b505af192505050801561216757506040513d601f19601f820116820180604052508101906121649190612957565b60015b61220d57612173613505565b806308c379a014156121d0575061218861399a565b8061219357506121d2565b806040517f08c379a00000000000000000000000000000000000000000000000000000000081526004016121c79190612f2a565b60405180910390fd5b505b6040517f08c379a000000000000000000000000000000000000000000000000000000000815260040161220490612f4c565b60405180910390fd5b63bc197c8160e01b7bffffffffffffffffffffffffffffffffffffffffffffffffffffffff1916817bffffffffffffffffffffffffffffffffffffffffffffffffffffffff191614612294576040517f08c379a000000000000000000000000000000000000000000000000000000000815260040161228b90612f6c565b60405180910390fd5b505b505050505050565b6000808273ffffffffffffffffffffffffffffffffffffffff163b119050919050565b8280546122cd906133cc565b90600052602060002090601f0160209004810192826122ef5760008555612336565b82601f1061230857805160ff1916838001178555612336565b82800160010185558215612336579182015b8281111561233557825182559160200191906001019061231a565b5b5090506123439190612347565b5090565b5b80821115612360576000816000905550600101612348565b5090565b600061237761237284613195565b613170565b9050808382526020820190508285602086028201111561239657600080fd5b60005b858110156123c657816123ac88826124b8565b845260208401935060208301925050600181019050612399565b5050509392505050565b60006123e36123de846131c1565b613170565b9050808382526020820190508285602086028201111561240257600080fd5b60005b85811015612432578161241888826125b4565b845260208401935060208301925050600181019050612405565b5050509392505050565b600061244f61244a846131ed565b613170565b90508281526020810184848401111561246757600080fd5b61247284828561338a565b509392505050565b600061248d6124888461321e565b613170565b9050828152602081018484840111156124a557600080fd5b6124b084828561338a565b509392505050565b6000813590506124c781613a30565b92915050565b600082601f8301126124de57600080fd5b81356124ee848260208601612364565b91505092915050565b600082601f83011261250857600080fd5b81356125188482602086016123d0565b91505092915050565b60008135905061253081613a47565b92915050565b60008135905061254581613a5e565b92915050565b60008151905061255a81613a5e565b92915050565b600082601f83011261257157600080fd5b813561258184826020860161243c565b91505092915050565b600082601f83011261259b57600080fd5b81356125ab84826020860161247a565b91505092915050565b6000813590506125c381613a75565b92915050565b6000602082840312156125db57600080fd5b60006125e9848285016124b8565b91505092915050565b6000806040838503121561260557600080fd5b6000612613858286016124b8565b9250506020612624858286016124b8565b9150509250929050565b600080600080600060a0868803121561264657600080fd5b6000612654888289016124b8565b9550506020612665888289016124b8565b945050604086013567ffffffffffffffff81111561268257600080fd5b61268e888289016124f7565b935050606086013567ffffffffffffffff8111156126ab57600080fd5b6126b7888289016124f7565b925050608086013567ffffffffffffffff8111156126d457600080fd5b6126e088828901612560565b9150509295509295909350565b600080600080600060a0868803121561270557600080fd5b6000612713888289016124b8565b9550506020612724888289016124b8565b9450506040612735888289016125b4565b9350506060612746888289016125b4565b925050608086013567ffffffffffffffff81111561276357600080fd5b61276f88828901612560565b9150509295509295909350565b60008060006060848603121561279157600080fd5b600061279f868287016124b8565b935050602084013567ffffffffffffffff8111156127bc57600080fd5b6127c8868287016124f7565b925050604084013567ffffffffffffffff8111156127e557600080fd5b6127f1868287016124f7565b9150509250925092565b6000806040838503121561280e57600080fd5b600061281c858286016124b8565b925050602061282d85828601612521565b9150509250929050565b6000806040838503121561284a57600080fd5b6000612858858286016124b8565b9250506020612869858286016125b4565b9150509250929050565b60008060006060848603121561288857600080fd5b6000612896868287016124b8565b93505060206128a7868287016125b4565b92505060406128b8868287016125b4565b9150509250925092565b600080604083850312156128d557600080fd5b600083013567ffffffffffffffff8111156128ef57600080fd5b6128fb858286016124cd565b925050602083013567ffffffffffffffff81111561291857600080fd5b612924858286016124f7565b9150509250929050565b60006020828403121561294057600080fd5b600061294e84828501612536565b91505092915050565b60006020828403121561296957600080fd5b60006129778482850161254b565b91505092915050565b60008060006060848603121561299557600080fd5b600084013567ffffffffffffffff8111156129af57600080fd5b6129bb8682870161258a565b935050602084013567ffffffffffffffff8111156129d857600080fd5b6129e48682870161258a565b925050604084013567ffffffffffffffff811115612a0157600080fd5b612a0d8682870161258a565b9150509250925092565b600060208284031215612a2957600080fd5b6000612a37848285016125b4565b91505092915050565b6000612a4c8383612d53565b60208301905092915050565b612a6181613316565b82525050565b6000612a728261325f565b612a7c818561328d565b9350612a878361324f565b8060005b83811015612ab8578151612a9f8882612a40565b9750612aaa83613280565b925050600181019050612a8b565b5085935050505092915050565b612ace81613328565b82525050565b6000612adf8261326a565b612ae9818561329e565b9350612af9818560208601613399565b612b0281613527565b840191505092915050565b6000612b1882613275565b612b2281856132af565b9350612b32818560208601613399565b612b3b81613527565b840191505092915050565b6000612b536034836132af565b9150612b5e82613545565b604082019050919050565b6000612b766028836132af565b9150612b8182613594565b604082019050919050565b6000612b99602b836132af565b9150612ba4826135e3565b604082019050919050565b6000612bbc6026836132af565b9150612bc782613632565b604082019050919050565b6000612bdf6029836132af565b9150612bea82613681565b604082019050919050565b6000612c026025836132af565b9150612c0d826136d0565b604082019050919050565b6000612c256032836132af565b9150612c308261371f565b604082019050919050565b6000612c486025836132af565b9150612c538261376e565b604082019050919050565b6000612c6b602a836132af565b9150612c76826137bd565b604082019050919050565b6000612c8e6020836132af565b9150612c998261380c565b602082019050919050565b6000612cb1601d836132af565b9150612cbc82613835565b602082019050919050565b6000612cd46029836132af565b9150612cdf8261385e565b604082019050919050565b6000612cf76029836132af565b9150612d02826138ad565b604082019050919050565b6000612d1a6028836132af565b9150612d25826138fc565b604082019050919050565b6000612d3d6021836132af565b9150612d488261394b565b604082019050919050565b612d5c81613380565b82525050565b612d6b81613380565b82525050565b6000602082019050612d866000830184612a58565b92915050565b600060a082019050612da16000830188612a58565b612dae6020830187612a58565b8181036040830152612dc08186612a67565b90508181036060830152612dd48185612a67565b90508181036080830152612de88184612ad4565b90509695505050505050565b600060a082019050612e096000830188612a58565b612e166020830187612a58565b612e236040830186612d62565b612e306060830185612d62565b8181036080830152612e428184612ad4565b90509695505050505050565b60006020820190508181036000830152612e688184612a67565b905092915050565b60006040820190508181036000830152612e8a8185612a67565b90508181036020830152612e9e8184612a67565b90509392505050565b6000602082019050612ebc6000830184612ac5565b92915050565b600060a082019050612ed76000830188612ac5565b8181036020830152612ee98187612b0d565b90508181036040830152612efd8186612b0d565b90508181036060830152612f118185612b0d565b9050612f206080830184612d62565b9695505050505050565b60006020820190508181036000830152612f448184612b0d565b905092915050565b60006020820190508181036000830152612f6581612b46565b9050919050565b60006020820190508181036000830152612f8581612b69565b9050919050565b60006020820190508181036000830152612fa581612b8c565b9050919050565b60006020820190508181036000830152612fc581612baf565b9050919050565b60006020820190508181036000830152612fe581612bd2565b9050919050565b6000602082019050818103600083015261300581612bf5565b9050919050565b6000602082019050818103600083015261302581612c18565b9050919050565b6000602082019050818103600083015261304581612c3b565b9050919050565b6000602082019050818103600083015261306581612c5e565b9050919050565b6000602082019050818103600083015261308581612c81565b9050919050565b600060208201905081810360008301526130a581612ca4565b9050919050565b600060208201905081810360008301526130c581612cc7565b9050919050565b600060208201905081810360008301526130e581612cea565b9050919050565b6000602082019050818103600083015261310581612d0d565b9050919050565b6000602082019050818103600083015261312581612d30565b9050919050565b60006020820190506131416000830184612d62565b92915050565b600060408201905061315c6000830185612d62565b6131696020830184612d62565b9392505050565b600061317a61318b565b905061318682826133fe565b919050565b6000604051905090565b600067ffffffffffffffff8211156131b0576131af6134d6565b5b602082029050602081019050919050565b600067ffffffffffffffff8211156131dc576131db6134d6565b5b602082029050602081019050919050565b600067ffffffffffffffff821115613208576132076134d6565b5b61321182613527565b9050602081019050919050565b600067ffffffffffffffff821115613239576132386134d6565b5b61324282613527565b9050602081019050919050565b6000819050602082019050919050565b600081519050919050565b600081519050919050565b600081519050919050565b6000602082019050919050565b600082825260208201905092915050565b600082825260208201905092915050565b600082825260208201905092915050565b60006132cb82613380565b91506132d683613380565b9250827fffffffffffffffffffffffffffffffffffffffffffffffffffffffffffffffff0382111561330b5761330a613478565b5b828201905092915050565b600061332182613360565b9050919050565b60008115159050919050565b60007fffffffff0000000000000000000000000000000000000000000000000000000082169050919050565b600073ffffffffffffffffffffffffffffffffffffffff82169050919050565b6000819050919050565b82818337600083830152505050565b60005b838110156133b757808201518184015260208101905061339c565b838111156133c6576000848401525b50505050565b600060028204905060018216806133e457607f821691505b602082108114156133f8576133f76134a7565b5b50919050565b61340782613527565b810181811067ffffffffffffffff82111715613426576134256134d6565b5b80604052505050565b600061343a82613380565b91507fffffffffffffffffffffffffffffffffffffffffffffffffffffffffffffffff82141561346d5761346c613478565b5b600182019050919050565b7f4e487b7100000000000000000000000000000000000000000000000000000000600052601160045260246000fd5b7f4e487b7100000000000000000000000000000000000000000000000000000000600052602260045260246000fd5b7f4e487b7100000000000000000000000000000000000000000000000000000000600052604160045260246000fd5b600060033d11156135245760046000803e613521600051613538565b90505b90565b6000601f19601f8301169050919050565b60008160e01c9050919050565b7f455243313135353a207472616e7366657220746f206e6f6e204552433131353560008201527f526563656976657220696d706c656d656e746572000000000000000000000000602082015250565b7f455243313135353a204552433131353552656365697665722072656a6563746560008201527f6420746f6b656e73000000000000000000000000000000000000000000000000602082015250565b7f455243313135353a2062616c616e636520717565727920666f7220746865207a60008201527f65726f2061646472657373000000000000000000000000000000000000000000602082015250565b7f4f776e61626c653a206e6577206f776e657220697320746865207a65726f206160008201527f6464726573730000000000000000000000000000000000000000000000000000602082015250565b7f455243313135353a2063616c6c6572206973206e6f74206f776e6572206e6f7260008201527f20617070726f7665640000000000000000000000000000000000000000000000602082015250565b7f455243313135353a207472616e7366657220746f20746865207a65726f20616460008201527f6472657373000000000000000000000000000000000000000000000000000000602082015250565b7f455243313135353a207472616e736665722063616c6c6572206973206e6f742060008201527f6f776e6572206e6f7220617070726f7665640000000000000000000000000000602082015250565b7f4f6e65206f662074686520746f6b656e7320776173206e6f742063726561746560008201527f6420796574000000000000000000000000000000000000000000000000000000602082015250565b7f455243313135353a20696e73756666696369656e742062616c616e636520666f60008201527f72207472616e7366657200000000000000000000000000000000000000000000602082015250565b7f4f776e61626c653a2063616c6c6572206973206e6f7420746865206f776e6572600082015250565b7f54686520746f6b656e20776173206e6f74206372656174656420796574000000600082015250565b7f455243313135353a2073657474696e6720617070726f76616c2073746174757360008201527f20666f722073656c660000000000000000000000000000000000000000000000602082015250565b7f455243313135353a206163636f756e747320616e6420696473206c656e67746860008201527f206d69736d617463680000000000000000000000000000000000000000000000602082015250565b7f455243313135353a2069647320616e6420616d6f756e7473206c656e6774682060008201527f6d69736d61746368000000000000000000000000000000000000000000000000602082015250565b7f455243313135353a206d696e7420746f20746865207a65726f2061646472657360008201527f7300000000000000000000000000000000000000000000000000000000000000602082015250565b600060443d10156139aa57613a2d565b6139b261318b565b60043d036004823e80513d602482011167ffffffffffffffff821117156139da575050613a2d565b808201805167ffffffffffffffff8111156139f85750505050613a2d565b80602083010160043d038501811115613a15575050505050613a2d565b613a24826020018501866133fe565b82955050505050505b90565b613a3981613316565b8114613a4457600080fd5b50565b613a5081613328565b8114613a5b57600080fd5b50565b613a6781613334565b8114613a7257600080fd5b50565b613a7e81613380565b8114613a8957600080fd5b5056fea2646970667358221220a5a1b92f52656ad5d78630468e9f5d40217bd45028c42263d8cbdc3854ed14a964736f6c63430008040033",
    "linkReferences": {},
    "deployedLinkReferences": {}
}